{
  "_format": "hh-sol-artifact-1",
  "contractName": "BoxV1",
  "sourceName": "contracts/Boxv1.sol",
  "abi": [
    {
      "anonymous": false,
      "inputs": [
        {
          "indexed": false,
          "internalType": "uint8",
          "name": "version",
          "type": "uint8"
        }
      ],
      "name": "Initialized",
      "type": "event"
    },
    {
      "inputs": [],
      "name": "area",
      "outputs": [
        {
          "internalType": "uint256",
          "name": "",
          "type": "uint256"
        }
      ],
      "stateMutability": "view",
      "type": "function"
    },
    {
      "inputs": [
        {
          "internalType": "uint256",
          "name": "_length",
          "type": "uint256"
        },
        {
          "internalType": "uint256",
          "name": "_width",
          "type": "uint256"
        }
      ],
      "name": "initialize",
      "outputs": [],
      "stateMutability": "nonpayable",
      "type": "function"
    },
    {
      "inputs": [],
      "name": "length",
      "outputs": [
        {
          "internalType": "uint256",
          "name": "",
          "type": "uint256"
        }
      ],
      "stateMutability": "view",
      "type": "function"
    },
    {
      "inputs": [],
      "name": "width",
      "outputs": [
        {
          "internalType": "uint256",
          "name": "",
          "type": "uint256"
        }
      ],
      "stateMutability": "view",
      "type": "function"
    }
  ],
  "bytecode": "0x608060405234801561001057600080fd5b5061049a806100206000396000f3fe608060405234801561001057600080fd5b506004361061004c5760003560e01c80631f7b6d32146100515780634d41892f1461006f5780639ededf771461008d578063e4a30116146100ab575b600080fd5b6100596100c7565b6040516100669190610320565b60405180910390f35b6100776100cd565b6040516100849190610320565b60405180910390f35b6100956100e4565b6040516100a29190610320565b60405180910390f35b6100c560048036038101906100c09190610268565b6100ea565b005b60025481565b60006001546002546100df919061034c565b905090565b60015481565b60008060019054906101000a900460ff1615905080801561011b5750600160008054906101000a900460ff1660ff16105b80610148575061012a30610230565b1580156101475750600160008054906101000a900460ff1660ff16145b5b610187576040517f08c379a000000000000000000000000000000000000000000000000000000000815260040161017e90610300565b60405180910390fd5b60016000806101000a81548160ff021916908360ff16021790555080156101c4576001600060016101000a81548160ff0219169083151502179055505b8260028190555081600181905550801561022b5760008060016101000a81548160ff0219169083151502179055507f7f26b83ff96e1f2b6a682f133852f6798a09c465da95921460cefb3847402498600160405161022291906102e5565b60405180910390a15b505050565b6000808273ffffffffffffffffffffffffffffffffffffffff163b119050919050565b6000813590506102628161044d565b92915050565b6000806040838503121561027b57600080fd5b600061028985828601610253565b925050602061029a85828601610253565b9150509250929050565b6102ad816103bd565b82525050565b60006102c0602e8361033b565b91506102cb826103fe565b604082019050919050565b6102df816103a6565b82525050565b60006020820190506102fa60008301846102a4565b92915050565b60006020820190508181036000830152610319816102b3565b9050919050565b600060208201905061033560008301846102d6565b92915050565b600082825260208201905092915050565b6000610357826103a6565b9150610362836103a6565b9250817fffffffffffffffffffffffffffffffffffffffffffffffffffffffffffffffff048311821515161561039b5761039a6103cf565b5b828202905092915050565b6000819050919050565b600060ff82169050919050565b60006103c8826103b0565b9050919050565b7f4e487b7100000000000000000000000000000000000000000000000000000000600052601160045260246000fd5b7f496e697469616c697a61626c653a20636f6e747261637420697320616c72656160008201527f647920696e697469616c697a6564000000000000000000000000000000000000602082015250565b610456816103a6565b811461046157600080fd5b5056fea2646970667358221220054961a45b96c507f1b423decf980eb6525f4c43bb2cf617521e1784a75e335464736f6c63430008040033",
  "linkReferences": {},
  "deployedLinkReferences": {}
}