{
  "_format": "hh-sol-artifact-1",
  "contractName": "BoxV2",
  "sourceName": "contracts/Boxv2.sol",
  "abi": [
    {
      "anonymous": false,
      "inputs": [
        {
          "indexed": false,
          "internalType": "uint8",
          "name": "version",
          "type": "uint8"
        }
      ],
      "name": "Initialized",
      "type": "event"
    },
    {
      "inputs": [],
      "name": "area",
      "outputs": [
        {
          "internalType": "uint256",
          "name": "",
          "type": "uint256"
        }
      ],
      "stateMutability": "view",
      "type": "function"
    },
    {
      "inputs": [
        {
          "internalType": "uint256",
          "name": "_length",
          "type": "uint256"
        },
        {
          "internalType": "uint256",
          "name": "_width",
          "type": "uint256"
        }
      ],
      "name": "initialize",
      "outputs": [],
      "stateMutability": "nonpayable",
      "type": "function"
    },
    {
      "inputs": [],
      "name": "length",
      "outputs": [
        {
          "internalType": "uint256",
          "name": "",
          "type": "uint256"
        }
      ],
      "stateMutability": "view",
      "type": "function"
    },
    {
      "inputs": [],
      "name": "perimeter",
      "outputs": [
        {
          "internalType": "uint256",
          "name": "",
          "type": "uint256"
        }
      ],
      "stateMutability": "view",
      "type": "function"
    },
    {
      "inputs": [],
      "name": "width",
      "outputs": [
        {
          "internalType": "uint256",
          "name": "",
          "type": "uint256"
        }
      ],
      "stateMutability": "view",
      "type": "function"
    }
  ],
  "bytecode": "0x608060405234801561001057600080fd5b50610547806100206000396000f3fe608060405234801561001057600080fd5b50600436106100575760003560e01c80631f7b6d321461005c5780632cf6598f1461007a5780634d41892f146100985780639ededf77146100b6578063e4a30116146100d4575b600080fd5b6100646100f0565b6040516100719190610377565b60405180910390f35b6100826100f6565b60405161008f9190610377565b60405180910390f35b6100a0610124565b6040516100ad9190610377565b60405180910390f35b6100be61013b565b6040516100cb9190610377565b60405180910390f35b6100ee60048036038101906100e991906102bf565b610141565b005b60025481565b6000600260015461010791906103f9565b6002805461011591906103f9565b61011f91906103a3565b905090565b600060015460025461013691906103f9565b905090565b60015481565b60008060019054906101000a900460ff161590508080156101725750600160008054906101000a900460ff1660ff16105b8061019f575061018130610287565b15801561019e5750600160008054906101000a900460ff1660ff16145b5b6101de576040517f08c379a00000000000000000000000000000000000000000000000000000000081526004016101d590610357565b60405180910390fd5b60016000806101000a81548160ff021916908360ff160217905550801561021b576001600060016101000a81548160ff0219169083151502179055505b826002819055508160018190555080156102825760008060016101000a81548160ff0219169083151502179055507f7f26b83ff96e1f2b6a682f133852f6798a09c465da95921460cefb38474024986001604051610279919061033c565b60405180910390a15b505050565b6000808273ffffffffffffffffffffffffffffffffffffffff163b119050919050565b6000813590506102b9816104fa565b92915050565b600080604083850312156102d257600080fd5b60006102e0858286016102aa565b92505060206102f1858286016102aa565b9150509250929050565b6103048161046a565b82525050565b6000610317602e83610392565b9150610322826104ab565b604082019050919050565b61033681610453565b82525050565b600060208201905061035160008301846102fb565b92915050565b600060208201905081810360008301526103708161030a565b9050919050565b600060208201905061038c600083018461032d565b92915050565b600082825260208201905092915050565b60006103ae82610453565b91506103b983610453565b9250827fffffffffffffffffffffffffffffffffffffffffffffffffffffffffffffffff038211156103ee576103ed61047c565b5b828201905092915050565b600061040482610453565b915061040f83610453565b9250817fffffffffffffffffffffffffffffffffffffffffffffffffffffffffffffffff04831182151516156104485761044761047c565b5b828202905092915050565b6000819050919050565b600060ff82169050919050565b60006104758261045d565b9050919050565b7f4e487b7100000000000000000000000000000000000000000000000000000000600052601160045260246000fd5b7f496e697469616c697a61626c653a20636f6e747261637420697320616c72656160008201527f647920696e697469616c697a6564000000000000000000000000000000000000602082015250565b61050381610453565b811461050e57600080fd5b5056fea26469706673582212202cd6ab901ded5ec4eef4e1c37fce2b590943ec87be673dd0327c8af949c8763a64736f6c63430008040033",
  "linkReferences": {},
  "deployedLinkReferences": {}
}